{
  "_format": "hh-sol-artifact-1",
  "contractName": "NFTMarketplace",
  "sourceName": "contracts/NFTMarketplace.sol",
  "abi": [
    {
      "inputs": [],
      "stateMutability": "nonpayable",
      "type": "constructor"
    },
    {
      "anonymous": false,
      "inputs": [
        {
          "indexed": true,
          "internalType": "address",
          "name": "owner",
          "type": "address"
        },
        {
          "indexed": true,
          "internalType": "address",
          "name": "approved",
          "type": "address"
        },
        {
          "indexed": true,
          "internalType": "uint256",
          "name": "tokenId",
          "type": "uint256"
        }
      ],
      "name": "Approval",
      "type": "event"
    },
    {
      "anonymous": false,
      "inputs": [
        {
          "indexed": true,
          "internalType": "address",
          "name": "owner",
          "type": "address"
        },
        {
          "indexed": true,
          "internalType": "address",
          "name": "operator",
          "type": "address"
        },
        {
          "indexed": false,
          "internalType": "bool",
          "name": "approved",
          "type": "bool"
        }
      ],
      "name": "ApprovalForAll",
      "type": "event"
    },
    {
      "anonymous": false,
      "inputs": [
        {
          "indexed": false,
          "internalType": "uint256",
          "name": "_fromTokenId",
          "type": "uint256"
        },
        {
          "indexed": false,
          "internalType": "uint256",
          "name": "_toTokenId",
          "type": "uint256"
        }
      ],
      "name": "BatchMetadataUpdate",
      "type": "event"
    },
    {
      "anonymous": false,
      "inputs": [
        {
          "indexed": true,
          "internalType": "uint256",
          "name": "tokenId",
          "type": "uint256"
        },
        {
          "indexed": false,
          "internalType": "address",
          "name": "seller",
          "type": "address"
        },
        {
          "indexed": false,
          "internalType": "address",
          "name": "owner",
          "type": "address"
        },
        {
          "indexed": false,
          "internalType": "uint256",
          "name": "price",
          "type": "uint256"
        },
        {
          "indexed": false,
          "internalType": "bool",
          "name": "sold",
          "type": "bool"
        }
      ],
      "name": "MarketItemCreated",
      "type": "event"
    },
    {
      "anonymous": false,
      "inputs": [
        {
          "indexed": true,
          "internalType": "uint256",
          "name": "tokenId",
          "type": "uint256"
        },
        {
          "indexed": false,
          "internalType": "address",
          "name": "seller",
          "type": "address"
        },
        {
          "indexed": false,
          "internalType": "address",
          "name": "owner",
          "type": "address"
        },
        {
          "indexed": false,
          "internalType": "uint256",
          "name": "price",
          "type": "uint256"
        }
      ],
      "name": "MarketItemSold",
      "type": "event"
    },
    {
      "anonymous": false,
      "inputs": [
        {
          "indexed": false,
          "internalType": "uint256",
          "name": "_tokenId",
          "type": "uint256"
        }
      ],
      "name": "MetadataUpdate",
      "type": "event"
    },
    {
      "anonymous": false,
      "inputs": [
        {
          "indexed": true,
          "internalType": "address",
          "name": "previousOwner",
          "type": "address"
        },
        {
          "indexed": true,
          "internalType": "address",
          "name": "newOwner",
          "type": "address"
        }
      ],
      "name": "OwnershipTransferred",
      "type": "event"
    },
    {
      "anonymous": false,
      "inputs": [
        {
          "indexed": true,
          "internalType": "address",
          "name": "from",
          "type": "address"
        },
        {
          "indexed": true,
          "internalType": "address",
          "name": "to",
          "type": "address"
        },
        {
          "indexed": true,
          "internalType": "uint256",
          "name": "tokenId",
          "type": "uint256"
        }
      ],
      "name": "Transfer",
      "type": "event"
    },
    {
      "inputs": [
        {
          "internalType": "address",
          "name": "to",
          "type": "address"
        },
        {
          "internalType": "uint256",
          "name": "tokenId",
          "type": "uint256"
        }
      ],
      "name": "approve",
      "outputs": [],
      "stateMutability": "nonpayable",
      "type": "function"
    },
    {
      "inputs": [
        {
          "internalType": "address",
          "name": "owner",
          "type": "address"
        }
      ],
      "name": "balanceOf",
      "outputs": [
        {
          "internalType": "uint256",
          "name": "",
          "type": "uint256"
        }
      ],
      "stateMutability": "view",
      "type": "function"
    },
    {
      "inputs": [
        {
          "internalType": "string",
          "name": "tokenURI",
          "type": "string"
        },
        {
          "internalType": "uint256",
          "name": "price",
          "type": "uint256"
        }
      ],
      "name": "createToken",
      "outputs": [
        {
          "internalType": "uint256",
          "name": "",
          "type": "uint256"
        }
      ],
      "stateMutability": "payable",
      "type": "function"
    },
    {
      "inputs": [
        {
          "internalType": "uint256",
          "name": "tokenId",
          "type": "uint256"
        }
      ],
      "name": "executeSale",
      "outputs": [],
      "stateMutability": "payable",
      "type": "function"
    },
    {
      "inputs": [],
      "name": "fetchItemsCreated",
      "outputs": [
        {
          "components": [
            {
              "internalType": "uint256",
              "name": "tokenId",
              "type": "uint256"
            },
            {
              "internalType": "address payable",
              "name": "seller",
              "type": "address"
            },
            {
              "internalType": "address payable",
              "name": "owner",
              "type": "address"
            },
            {
              "internalType": "uint256",
              "name": "price",
              "type": "uint256"
            },
            {
              "internalType": "bool",
              "name": "sold",
              "type": "bool"
            }
          ],
          "internalType": "struct NFTMarketplace.MarketItem[]",
          "name": "",
          "type": "tuple[]"
        }
      ],
      "stateMutability": "view",
      "type": "function"
    },
    {
      "inputs": [],
      "name": "fetchMarketItems",
      "outputs": [
        {
          "components": [
            {
              "internalType": "uint256",
              "name": "tokenId",
              "type": "uint256"
            },
            {
              "internalType": "address payable",
              "name": "seller",
              "type": "address"
            },
            {
              "internalType": "address payable",
              "name": "owner",
              "type": "address"
            },
            {
              "internalType": "uint256",
              "name": "price",
              "type": "uint256"
            },
            {
              "internalType": "bool",
              "name": "sold",
              "type": "bool"
            }
          ],
          "internalType": "struct NFTMarketplace.MarketItem[]",
          "name": "",
          "type": "tuple[]"
        }
      ],
      "stateMutability": "view",
      "type": "function"
    },
    {
      "inputs": [],
      "name": "fetchMyNFTs",
      "outputs": [
        {
          "components": [
            {
              "internalType": "uint256",
              "name": "tokenId",
              "type": "uint256"
            },
            {
              "internalType": "address payable",
              "name": "seller",
              "type": "address"
            },
            {
              "internalType": "address payable",
              "name": "owner",
              "type": "address"
            },
            {
              "internalType": "uint256",
              "name": "price",
              "type": "uint256"
            },
            {
              "internalType": "bool",
              "name": "sold",
              "type": "bool"
            }
          ],
          "internalType": "struct NFTMarketplace.MarketItem[]",
          "name": "",
          "type": "tuple[]"
        }
      ],
      "stateMutability": "view",
      "type": "function"
    },
    {
      "inputs": [
        {
          "internalType": "uint256",
          "name": "tokenId",
          "type": "uint256"
        }
      ],
      "name": "getApproved",
      "outputs": [
        {
          "internalType": "address",
          "name": "",
          "type": "address"
        }
      ],
      "stateMutability": "view",
      "type": "function"
    },
    {
      "inputs": [],
      "name": "getListingPrice",
      "outputs": [
        {
          "internalType": "uint256",
          "name": "",
          "type": "uint256"
        }
      ],
      "stateMutability": "view",
      "type": "function"
    },
    {
      "inputs": [
        {
          "internalType": "address",
          "name": "owner",
          "type": "address"
        },
        {
          "internalType": "address",
          "name": "operator",
          "type": "address"
        }
      ],
      "name": "isApprovedForAll",
      "outputs": [
        {
          "internalType": "bool",
          "name": "",
          "type": "bool"
        }
      ],
      "stateMutability": "view",
      "type": "function"
    },
    {
      "inputs": [
        {
          "internalType": "uint256",
          "name": "tokenId",
          "type": "uint256"
        },
        {
          "internalType": "uint256",
          "name": "price",
          "type": "uint256"
        }
      ],
      "name": "listToken",
      "outputs": [],
      "stateMutability": "payable",
      "type": "function"
    },
    {
      "inputs": [],
      "name": "listingPrice",
      "outputs": [
        {
          "internalType": "uint256",
          "name": "",
          "type": "uint256"
        }
      ],
      "stateMutability": "view",
      "type": "function"
    },
    {
      "inputs": [],
      "name": "name",
      "outputs": [
        {
          "internalType": "string",
          "name": "",
          "type": "string"
        }
      ],
      "stateMutability": "view",
      "type": "function"
    },
    {
      "inputs": [],
      "name": "owner",
      "outputs": [
        {
          "internalType": "address",
          "name": "",
          "type": "address"
        }
      ],
      "stateMutability": "view",
      "type": "function"
    },
    {
      "inputs": [
        {
          "internalType": "uint256",
          "name": "tokenId",
          "type": "uint256"
        }
      ],
      "name": "ownerOf",
      "outputs": [
        {
          "internalType": "address",
          "name": "",
          "type": "address"
        }
      ],
      "stateMutability": "view",
      "type": "function"
    },
    {
      "inputs": [],
      "name": "renounceOwnership",
      "outputs": [],
      "stateMutability": "nonpayable",
      "type": "function"
    },
    {
      "inputs": [
        {
          "internalType": "address",
          "name": "from",
          "type": "address"
        },
        {
          "internalType": "address",
          "name": "to",
          "type": "address"
        },
        {
          "internalType": "uint256",
          "name": "tokenId",
          "type": "uint256"
        }
      ],
      "name": "safeTransferFrom",
      "outputs": [],
      "stateMutability": "nonpayable",
      "type": "function"
    },
    {
      "inputs": [
        {
          "internalType": "address",
          "name": "from",
          "type": "address"
        },
        {
          "internalType": "address",
          "name": "to",
          "type": "address"
        },
        {
          "internalType": "uint256",
          "name": "tokenId",
          "type": "uint256"
        },
        {
          "internalType": "bytes",
          "name": "data",
          "type": "bytes"
        }
      ],
      "name": "safeTransferFrom",
      "outputs": [],
      "stateMutability": "nonpayable",
      "type": "function"
    },
    {
      "inputs": [
        {
          "internalType": "address",
          "name": "operator",
          "type": "address"
        },
        {
          "internalType": "bool",
          "name": "approved",
          "type": "bool"
        }
      ],
      "name": "setApprovalForAll",
      "outputs": [],
      "stateMutability": "nonpayable",
      "type": "function"
    },
    {
      "inputs": [
        {
          "internalType": "bytes4",
          "name": "interfaceId",
          "type": "bytes4"
        }
      ],
      "name": "supportsInterface",
      "outputs": [
        {
          "internalType": "bool",
          "name": "",
          "type": "bool"
        }
      ],
      "stateMutability": "view",
      "type": "function"
    },
    {
      "inputs": [],
      "name": "symbol",
      "outputs": [
        {
          "internalType": "string",
          "name": "",
          "type": "string"
        }
      ],
      "stateMutability": "view",
      "type": "function"
    },
    {
      "inputs": [
        {
          "internalType": "uint256",
          "name": "tokenId",
          "type": "uint256"
        }
      ],
      "name": "tokenURI",
      "outputs": [
        {
          "internalType": "string",
          "name": "",
          "type": "string"
        }
      ],
      "stateMutability": "view",
      "type": "function"
    },
    {
      "inputs": [
        {
          "internalType": "address",
          "name": "from",
          "type": "address"
        },
        {
          "internalType": "address",
          "name": "to",
          "type": "address"
        },
        {
          "internalType": "uint256",
          "name": "tokenId",
          "type": "uint256"
        }
      ],
      "name": "transferFrom",
      "outputs": [],
      "stateMutability": "nonpayable",
      "type": "function"
    },
    {
      "inputs": [
        {
          "internalType": "address",
          "name": "newOwner",
          "type": "address"
        }
      ],
      "name": "transferOwnership",
      "outputs": [],
      "stateMutability": "nonpayable",
      "type": "function"
    },
    {
      "inputs": [
        {
          "internalType": "uint256",
          "name": "_listingPrice",
          "type": "uint256"
        }
      ],
      "name": "updateListingPrice",
      "outputs": [],
      "stateMutability": "nonpayable",
      "type": "function"
    }
  ],
  "bytecode": "0x60806040526658d15e17628000600a553480156200001c57600080fd5b50604080518082018252600c81526b10595d1a195c9a584813919560a21b6020808301918252835180850190945260048452631053919560e21b9084015281519192916200006d91600091620000fc565b50805162000083906001906020840190620000fc565b505050620000a06200009a620000a660201b60201c565b620000aa565b620001df565b3390565b600780546001600160a01b038381166001600160a01b0319831681179093556040519116919082907f8be0079c531659141344cd1fd0a4f28419497f9722a3daafe3b4186f6b6457e090600090a35050565b8280546200010a90620001a2565b90600052602060002090601f0160209004810192826200012e576000855562000179565b82601f106200014957805160ff191683800117855562000179565b8280016001018555821562000179579182015b82811115620001795782518255916020019190600101906200015c565b50620001879291506200018b565b5090565b5b808211156200018757600081556001016200018c565b600181811c90821680620001b757607f821691505b60208210811415620001d957634e487b7160e01b600052602260045260246000fd5b50919050565b61255f80620001ef6000396000f3fe6080604052600436106101665760003560e01c806372b3b620116100d1578063ae677aa31161008a578063c87b56dd11610064578063c87b56dd146103e9578063e985e9c514610409578063f064c32e14610452578063f2fde38b1461046757600080fd5b8063ae677aa314610393578063b88d4fde146103b3578063c78f19f9146103d357600080fd5b806372b3b6201461030757806375c1631d1461031a5780638da5cb5b1461032d57806395d89b411461034b5780639b1225c414610360578063a22cb4651461037357600080fd5b8063202e374011610123578063202e37401461025d57806323b872dd1461027257806342842e0e146102925780636352211e146102b257806370a08231146102d2578063715018a6146102f257600080fd5b806301ffc9a71461016b57806306fdde03146101a0578063081812fc146101c2578063095ea7b3146101fa5780630f08efe01461021c57806312e855851461023e575b600080fd5b34801561017757600080fd5b5061018b610186366004612164565b610487565b60405190151581526020015b60405180910390f35b3480156101ac57600080fd5b506101b56104b2565b604051610197919061233f565b3480156101ce57600080fd5b506101e26101dd3660046121f2565b610544565b6040516001600160a01b039091168152602001610197565b34801561020657600080fd5b5061021a61021536600461213b565b61056b565b005b34801561022857600080fd5b50610231610686565b60405161019791906122c3565b34801561024a57600080fd5b50600a545b604051908152602001610197565b34801561026957600080fd5b5061023161083a565b34801561027e57600080fd5b5061021a61028d36600461204d565b610a2c565b34801561029e57600080fd5b5061021a6102ad36600461204d565b610a5d565b3480156102be57600080fd5b506101e26102cd3660046121f2565b610a78565b3480156102de57600080fd5b5061024f6102ed366004612001565b610ad8565b3480156102fe57600080fd5b5061021a610b5e565b61024f61031536600461219c565b610b72565b61021a61032836600461220a565b610c4d565b34801561033957600080fd5b506007546001600160a01b03166101e2565b34801561035757600080fd5b506101b5610dc2565b61021a61036e3660046121f2565b610dd1565b34801561037f57600080fd5b5061021a61038e366004612101565b610fc1565b34801561039f57600080fd5b5061021a6103ae3660046121f2565b610fcc565b3480156103bf57600080fd5b5061021a6103ce366004612088565b610fd9565b3480156103df57600080fd5b5061024f600a5481565b3480156103f557600080fd5b506101b56104043660046121f2565b611011565b34801561041557600080fd5b5061018b61042436600461201b565b6001600160a01b03918216600090815260056020908152604080832093909416825291909152205460ff1690565b34801561045e57600080fd5b50610231611122565b34801561047357600080fd5b5061021a610482366004612001565b611314565b60006001600160e01b03198216632483248360e11b14806104ac57506104ac8261138d565b92915050565b6060600080546104c190612491565b80601f01602080910402602001604051908101604052809291908181526020018280546104ed90612491565b801561053a5780601f1061050f5761010080835404028352916020019161053a565b820191906000526020600020905b81548152906001019060200180831161051d57829003601f168201915b5050505050905090565b600061054f826113dd565b506000908152600460205260409020546001600160a01b031690565b600061057682610a78565b9050806001600160a01b0316836001600160a01b031614156105e95760405162461bcd60e51b815260206004820152602160248201527f4552433732313a20617070726f76616c20746f2063757272656e74206f776e656044820152603960f91b60648201526084015b60405180910390fd5b336001600160a01b038216148061060557506106058133610424565b6106775760405162461bcd60e51b815260206004820152603d60248201527f4552433732313a20617070726f76652063616c6c6572206973206e6f7420746f60448201527f6b656e206f776e6572206f7220617070726f76656420666f7220616c6c00000060648201526084016105e0565b610681838361143c565b505050565b6060600061069360085490565b905060006106a060095490565b6008546106ad919061244e565b90506000808267ffffffffffffffff8111156106d957634e487b7160e01b600052604160045260246000fd5b60405190808252806020026020018201604052801561073257816020015b6040805160a0810182526000808252602080830182905292820181905260608201819052608082015282526000199092019101816106f75790505b50905060005b848110156108315730600b6000610750846001612436565b81526020810191909152604001600020600201546001600160a01b0316141561081f576000610780826001612436565b6000818152600b6020908152604091829020825160a0810184528154815260018201546001600160a01b039081169382019390935260028201549092169282019290925260038201546060820152600482015460ff16151560808201528551929350909185908790811061080457634e487b7160e01b600052603260045260246000fd5b602090810291909101015261081a600186612436565b945050505b80610829816124cc565b915050610738565b50949350505050565b6060600061084760085490565b905060008060005b838110156108aa5733600b6000610867846001612436565b81526020810191909152604001600020600201546001600160a01b0316141561089857610895600184612436565b92505b806108a2816124cc565b91505061084f565b5060008267ffffffffffffffff8111156108d457634e487b7160e01b600052604160045260246000fd5b60405190808252806020026020018201604052801561092d57816020015b6040805160a0810182526000808252602080830182905292820181905260608201819052608082015282526000199092019101816108f25790505b50905060005b848110156108315733600b600061094b846001612436565b81526020810191909152604001600020600201546001600160a01b03161415610a1a57600061097b826001612436565b6000818152600b6020908152604091829020825160a0810184528154815260018201546001600160a01b039081169382019390935260028201549092169282019290925260038201546060820152600482015460ff1615156080820152855192935090918590879081106109ff57634e487b7160e01b600052603260045260246000fd5b6020908102919091010152610a15600186612436565b945050505b80610a24816124cc565b915050610933565b610a3633826114aa565b610a525760405162461bcd60e51b81526004016105e090612352565b610681838383611528565b61068183838360405180602001604052806000815250610fd9565b6000818152600260205260408120546001600160a01b0316806104ac5760405162461bcd60e51b8152602060048201526018602482015277115490cdcc8c4e881a5b9d985b1a59081d1bdad95b88125160421b60448201526064016105e0565b60006001600160a01b038216610b425760405162461bcd60e51b815260206004820152602960248201527f4552433732313a2061646472657373207a65726f206973206e6f7420612076616044820152683634b21037bbb732b960b91b60648201526084016105e0565b506001600160a01b031660009081526003602052604090205490565b610b6661168c565b610b7060006116e6565b565b6000808211610bc35760405162461bcd60e51b815260206004820152601c60248201527f5072696365206d757374206265206174206c656173742031207765690000000060448201526064016105e0565b600a543414610c0d5760405162461bcd60e51b81526020600482015260166024820152754d75737420706179206c697374696e6720707269636560501b60448201526064016105e0565b610c1b600880546001019055565b6000610c2660085490565b9050610c323382611738565b610c3c81856118c3565b610c468184611995565b9392505050565b6000828152600b60205260409020600201546001600160a01b03163314610cc95760405162461bcd60e51b815260206004820152602a60248201527f4f6e6c79206974656d206f776e65722063616e20706572666f726d20746869736044820152691037b832b930ba34b7b760b11b60648201526084016105e0565b600a543414610d135760405162461bcd60e51b81526020600482015260166024820152754d75737420706179206c697374696e6720707269636560501b60448201526064016105e0565b60008111610d635760405162461bcd60e51b815260206004820152601c60248201527f5072696365206d757374206265206174206c656173742031207765690000000060448201526064016105e0565b6000828152600b6020526040902060048101805460ff19169055600381018290556001810180546001600160a01b031990811633179091556002909101805490911630179055610db36009611a7a565b610dbe333084611528565b5050565b6060600180546104c190612491565b6000818152600b6020526040902060038101546001909101546001600160a01b0316348214610e425760405162461bcd60e51b815260206004820152601e60248201527f506c65617365207375626d6974207468652061736b696e67207072696365000060448201526064016105e0565b6000838152600b602052604090206004015460ff1615610ea45760405162461bcd60e51b815260206004820152601960248201527f54686973206974656d20697320616c726561647920736f6c640000000000000060448201526064016105e0565b6000838152600b602052604090206002810180546001600160a01b0319908116331790915560048201805460ff1916600190811790915590910180549091169055610ef3600980546001019055565b610efe303385611528565b600754600a546040516001600160a01b039092169181156108fc0291906000818181858888f19350505050158015610f3a573d6000803e3d6000fd5b506040516001600160a01b038216903480156108fc02916000818181858888f19350505050158015610f70573d6000803e3d6000fd5b50604080516001600160a01b038316815233602082015290810183905283907f150ffca547cf855e7fcf5daa82e41c6523b5fb2c8b1309bbb6cf2f87c6ae5a319060600160405180910390a2505050565b610dbe338383611ad1565b610fd461168c565b600a55565b610fe333836114aa565b610fff5760405162461bcd60e51b81526004016105e090612352565b61100b84848484611ba0565b50505050565b606061101c826113dd565b6000828152600660205260408120805461103590612491565b80601f016020809104026020016040519081016040528092919081815260200182805461106190612491565b80156110ae5780601f10611083576101008083540402835291602001916110ae565b820191906000526020600020905b81548152906001019060200180831161109157829003601f168201915b5050505050905060006110cc60408051602081019091526000815290565b90508051600014156110df575092915050565b8151156111115780826040516020016110f9929190612257565b60405160208183030381529060405292505050919050565b61111a84611bd3565b949350505050565b6060600061112f60085490565b905060008060005b838110156111925733600b600061114f846001612436565b81526020810191909152604001600020600101546001600160a01b031614156111805761117d600184612436565b92505b8061118a816124cc565b915050611137565b5060008267ffffffffffffffff8111156111bc57634e487b7160e01b600052604160045260246000fd5b60405190808252806020026020018201604052801561121557816020015b6040805160a0810182526000808252602080830182905292820181905260608201819052608082015282526000199092019101816111da5790505b50905060005b848110156108315733600b6000611233846001612436565b81526020810191909152604001600020600101546001600160a01b03161415611302576000611263826001612436565b6000818152600b6020908152604091829020825160a0810184528154815260018201546001600160a01b039081169382019390935260028201549092169282019290925260038201546060820152600482015460ff1615156080820152855192935090918590879081106112e757634e487b7160e01b600052603260045260246000fd5b60209081029190910101526112fd600186612436565b945050505b8061130c816124cc565b91505061121b565b61131c61168c565b6001600160a01b0381166113815760405162461bcd60e51b815260206004820152602660248201527f4f776e61626c653a206e6577206f776e657220697320746865207a65726f206160448201526564647265737360d01b60648201526084016105e0565b61138a816116e6565b50565b60006001600160e01b031982166380ac58cd60e01b14806113be57506001600160e01b03198216635b5e139f60e01b145b806104ac57506301ffc9a760e01b6001600160e01b03198316146104ac565b6000818152600260205260409020546001600160a01b031661138a5760405162461bcd60e51b8152602060048201526018602482015277115490cdcc8c4e881a5b9d985b1a59081d1bdad95b88125160421b60448201526064016105e0565b600081815260046020526040902080546001600160a01b0319166001600160a01b038416908117909155819061147182610a78565b6001600160a01b03167f8c5be1e5ebec7d5bd14f71427d1e84f3dd0314c0f7b2291e5b200ac8c7c3b92560405160405180910390a45050565b6000806114b683610a78565b9050806001600160a01b0316846001600160a01b031614806114fd57506001600160a01b0380821660009081526005602090815260408083209388168352929052205460ff165b8061111a5750836001600160a01b031661151684610544565b6001600160a01b031614949350505050565b826001600160a01b031661153b82610a78565b6001600160a01b0316146115615760405162461bcd60e51b81526004016105e0906123f1565b6001600160a01b0382166115c35760405162461bcd60e51b8152602060048201526024808201527f4552433732313a207472616e7366657220746f20746865207a65726f206164646044820152637265737360e01b60648201526084016105e0565b826001600160a01b03166115d682610a78565b6001600160a01b0316146115fc5760405162461bcd60e51b81526004016105e0906123f1565b600081815260046020908152604080832080546001600160a01b03199081169091556001600160a01b0387811680865260038552838620805460001901905590871680865283862080546001019055868652600290945282852080549092168417909155905184937fddf252ad1be2c89b69c2b068fc378daa952ba7f163c4a11628f55a4df523b3ef91a4505050565b6007546001600160a01b03163314610b705760405162461bcd60e51b815260206004820181905260248201527f4f776e61626c653a2063616c6c6572206973206e6f7420746865206f776e657260448201526064016105e0565b600780546001600160a01b038381166001600160a01b0319831681179093556040519116919082907f8be0079c531659141344cd1fd0a4f28419497f9722a3daafe3b4186f6b6457e090600090a35050565b6001600160a01b03821661178e5760405162461bcd60e51b815260206004820181905260248201527f4552433732313a206d696e7420746f20746865207a65726f206164647265737360448201526064016105e0565b6000818152600260205260409020546001600160a01b0316156117f35760405162461bcd60e51b815260206004820152601c60248201527f4552433732313a20746f6b656e20616c7265616479206d696e7465640000000060448201526064016105e0565b6000818152600260205260409020546001600160a01b0316156118585760405162461bcd60e51b815260206004820152601c60248201527f4552433732313a20746f6b656e20616c7265616479206d696e7465640000000060448201526064016105e0565b6001600160a01b038216600081815260036020908152604080832080546001019055848352600290915280822080546001600160a01b0319168417905551839291907fddf252ad1be2c89b69c2b068fc378daa952ba7f163c4a11628f55a4df523b3ef908290a45050565b6000828152600260205260409020546001600160a01b031661193e5760405162461bcd60e51b815260206004820152602e60248201527f45524337323155524953746f726167653a2055524920736574206f66206e6f6e60448201526d32bc34b9ba32b73a103a37b5b2b760911b60648201526084016105e0565b6000828152600660209081526040909120825161195d92840190611ed6565b506040518281527ff8e1a15aba9398e019f0b49df1a4fde98ee17ae345cb5f6b5e2c27f5033e8ce79060200160405180910390a15050565b6040805160a08101825283815233602080830182815230848601818152606086018881526000608088018181528b8252600b909652979097209551865591516001860180546001600160a01b03199081166001600160a01b0393841617909155925160028701805490941691161790915593516003840155516004909201805460ff191692151592909217909155611a2d9184611528565b604080513381523060208201529081018290526000606082015282907fb640004f1d14576d0c209e240cad0410e0d8c0c33a09375861fbadae2588a98d9060800160405180910390a25050565b805480611ac95760405162461bcd60e51b815260206004820152601b60248201527f436f756e7465723a2064656372656d656e74206f766572666c6f77000000000060448201526064016105e0565b600019019055565b816001600160a01b0316836001600160a01b03161415611b335760405162461bcd60e51b815260206004820152601960248201527f4552433732313a20617070726f766520746f2063616c6c65720000000000000060448201526064016105e0565b6001600160a01b03838116600081815260056020908152604080832094871680845294825291829020805460ff191686151590811790915591519182527f17307eab39ab6107e8899845ad3d59bd9653f200f220920489ca2b5937696c31910160405180910390a3505050565b611bab848484611528565b611bb784848484611c46565b61100b5760405162461bcd60e51b81526004016105e09061239f565b6060611bde826113dd565b6000611bf560408051602081019091526000815290565b90506000815111611c155760405180602001604052806000815250610c46565b80611c1f84611d53565b604051602001611c30929190612257565b6040516020818303038152906040529392505050565b60006001600160a01b0384163b15611d4857604051630a85bd0160e11b81526001600160a01b0385169063150b7a0290611c8a903390899088908890600401612286565b602060405180830381600087803b158015611ca457600080fd5b505af1925050508015611cd4575060408051601f3d908101601f19168201909252611cd191810190612180565b60015b611d2e573d808015611d02576040519150601f19603f3d011682016040523d82523d6000602084013e611d07565b606091505b508051611d265760405162461bcd60e51b81526004016105e09061239f565b805181602001fd5b6001600160e01b031916630a85bd0160e11b14905061111a565b506001949350505050565b60606000611d6083611dfe565b600101905060008167ffffffffffffffff811115611d8e57634e487b7160e01b600052604160045260246000fd5b6040519080825280601f01601f191660200182016040528015611db8576020820181803683370190505b5090508181016020015b600019016f181899199a1a9b1b9c1cb0b131b232b360811b600a86061a8153600a8504945084611df157611df6565b611dc2565b509392505050565b60008072184f03e93ff9f4daa797ed6e38ed64bf6a1f0160401b8310611e3d5772184f03e93ff9f4daa797ed6e38ed64bf6a1f0160401b830492506040015b6d04ee2d6d415b85acef81000000008310611e69576d04ee2d6d415b85acef8100000000830492506020015b662386f26fc100008310611e8757662386f26fc10000830492506010015b6305f5e1008310611e9f576305f5e100830492506008015b6127108310611eb357612710830492506004015b60648310611ec5576064830492506002015b600a83106104ac5760010192915050565b828054611ee290612491565b90600052602060002090601f016020900481019282611f045760008555611f4a565b82601f10611f1d57805160ff1916838001178555611f4a565b82800160010185558215611f4a579182015b82811115611f4a578251825591602001919060010190611f2f565b50611f56929150611f5a565b5090565b5b80821115611f565760008155600101611f5b565b600067ffffffffffffffff80841115611f8a57611f8a6124fd565b604051601f8501601f19908116603f01168101908282118183101715611fb257611fb26124fd565b81604052809350858152868686011115611fcb57600080fd5b858560208301376000602087830101525050509392505050565b80356001600160a01b0381168114611ffc57600080fd5b919050565b600060208284031215612012578081fd5b610c4682611fe5565b6000806040838503121561202d578081fd5b61203683611fe5565b915061204460208401611fe5565b90509250929050565b600080600060608486031215612061578081fd5b61206a84611fe5565b925061207860208501611fe5565b9150604084013590509250925092565b6000806000806080858703121561209d578081fd5b6120a685611fe5565b93506120b460208601611fe5565b925060408501359150606085013567ffffffffffffffff8111156120d6578182fd5b8501601f810187136120e6578182fd5b6120f587823560208401611f6f565b91505092959194509250565b60008060408385031215612113578182fd5b61211c83611fe5565b915060208301358015158114612130578182fd5b809150509250929050565b6000806040838503121561214d578182fd5b61215683611fe5565b946020939093013593505050565b600060208284031215612175578081fd5b8135610c4681612513565b600060208284031215612191578081fd5b8151610c4681612513565b600080604083850312156121ae578182fd5b823567ffffffffffffffff8111156121c4578283fd5b8301601f810185136121d4578283fd5b6121e385823560208401611f6f565b95602094909401359450505050565b600060208284031215612203578081fd5b5035919050565b6000806040838503121561221c578182fd5b50508035926020909101359150565b60008151808452612243816020860160208601612465565b601f01601f19169290920160200192915050565b60008351612269818460208801612465565b83519083019061227d818360208801612465565b01949350505050565b6001600160a01b03858116825284166020820152604081018390526080606082018190526000906122b99083018461222b565b9695505050505050565b602080825282518282018190526000919060409081850190868401855b8281101561233257815180518552868101516001600160a01b03908116888701528682015116868601526060808201519086015260809081015115159085015260a090930192908501906001016122e0565b5091979650505050505050565b602081526000610c46602083018461222b565b6020808252602d908201527f4552433732313a2063616c6c6572206973206e6f7420746f6b656e206f776e6560408201526c1c881bdc88185c1c1c9bdd9959609a1b606082015260800190565b60208082526032908201527f4552433732313a207472616e7366657220746f206e6f6e20455243373231526560408201527131b2b4bb32b91034b6b83632b6b2b73a32b960711b606082015260800190565b60208082526025908201527f4552433732313a207472616e736665722066726f6d20696e636f72726563742060408201526437bbb732b960d91b606082015260800190565b60008219821115612449576124496124e7565b500190565b600082821015612460576124606124e7565b500390565b60005b83811015612480578181015183820152602001612468565b8381111561100b5750506000910152565b600181811c908216806124a557607f821691505b602082108114156124c657634e487b7160e01b600052602260045260246000fd5b50919050565b60006000198214156124e0576124e06124e7565b5060010190565b634e487b7160e01b600052601160045260246000fd5b634e487b7160e01b600052604160045260246000fd5b6001600160e01b03198116811461138a57600080fdfea2646970667358221220579a29b7f866b3b7ba2de9d1838985cf6f343e0a1e9c2d988aa5528b27aa22bc64736f6c63430008040033",
  "linkReferences": {},
  "deployedLinkReferences": {}
}